:1000000002008AE5836003E49322A882E622E58366
:100010006004E4938003A882E6F822E5836004E4A8
:10002000938003A882E6F922E5836004E4938003C9
:10003000A882E6FA22E5836004E4938003A882E6BE
:10004000FB22E5836004E4938003A882E6FC22E5BA
:10005000836004E4938003A882E6FD22E5836004C4
:10006000E4938003A882E6FE22E5836004E49380A3
:1000700003A882E6FF22E4F5D0758124F520F5215E
:0D008000F522F523120111020000020076A6
:100100002A3734313038353223393633444342418B
:1001100000020210752201752300758038758080F9
:1001200075A00175A0007520FF7521FF7590EFE5A2
:1001300090B4EE0675200075210FE590B4ED0675BC
:10014000200075210EE590B4EB0675200075210D99
:10015000E590B4E70675200075210C7590DFE590F9
:10016000B4DE0675200075210BE590B4DD06752020
:100170000075210AE590B4DB06752000752109E5BC
:1001800090B4D7067520007521087590BFE590B42E
:10019000BE06752000752107E590B4BD06752000E8
:1001A000752106E590B4BB06752000752105E59024
:1001B000B4B70675200075210475907FE590B47E74
:1001C00006752000752103E590B47D067520007545
:1001D0002102E590B47B06752000752101E590B4FD
:1001E0007705E4F520F521E521B4FF09E520B4FF0A
:1001F0000480008017E5212523F582E5203522F5CE
:1002000083120003F58075A00375A0020201262267
:03021000020114D4
:00000001FF
